{
  "contractName": "Receiver",
  "abi": [
    {
      "anonymous": false,
      "inputs": [
        {
          "indexed": true,
          "name": "sender",
          "type": "address"
        },
        {
          "indexed": false,
          "name": "message",
          "type": "string"
        }
      ],
      "name": "TxReceived",
      "type": "event",
      "signature": "0x0f18e425e98c5588c3f9fdb12c657ecbad3abdf3ed03152a22c5e288a0ec43ae"
    },
    {
      "constant": false,
      "inputs": [
        {
          "name": "_sender",
          "type": "address"
        },
        {
          "name": "_message",
          "type": "string"
        }
      ],
      "name": "receive",
      "outputs": [],
      "payable": false,
      "stateMutability": "nonpayable",
      "type": "function",
      "signature": "0x10e1bf41"
    }
  ],
  "bytecode": "0x608060405234801561001057600080fd5b50610211806100206000396000f3fe608060405260043610610041576000357c0100000000000000000000000000000000000000000000000000000000900463ffffffff16806310e1bf4114610046575b600080fd5b34801561005257600080fd5b5061012c6004803603604081101561006957600080fd5b81019080803573ffffffffffffffffffffffffffffffffffffffff169060200190929190803590602001906401000000008111156100a657600080fd5b8201836020820111156100b857600080fd5b803590602001918460018302840111640100000000831117156100da57600080fd5b91908080601f016020809104026020016040519081016040528093929190818152602001838380828437600081840152601f19601f82011690508083019250505050505050919291929050505061012e565b005b8173ffffffffffffffffffffffffffffffffffffffff167f0f18e425e98c5588c3f9fdb12c657ecbad3abdf3ed03152a22c5e288a0ec43ae826040518080602001828103825283818151815260200191508051906020019080838360005b838110156101a757808201518184015260208101905061018c565b50505050905090810190601f1680156101d45780820380516001836020036101000a031916815260200191505b509250505060405180910390a2505056fea165627a7a723058202e667e358ce5e118705de19cdae110009e5a722064c6f0b22984f845aca86c300029",
  "source": "pragma solidity >=0.5.0 <0.6.0;\n\ncontract Receiver{\n    event TxReceived(address indexed sender, string message);\n    \n    function receive(address _sender, string memory _message) public {\n        emit TxReceived(_sender, _message);\n    }\n}",
  "sourcePath": "/Users/edu/Documents/Gitcoin/xdai-listener/contracts/Receiver.sol",
  "compiler": {
    "name": "solc",
    "version": "0.5.0+commit.1d4f565a.Emscripten.clang"
  },
  "schemaVersion": "3.0.1",
  "updatedAt": "2019-01-22T03:01:06.901Z",
  "devdoc": {
    "methods": {}
  },
  "userdoc": {
    "methods": {}
  }
}