{
  "contractName": "Emitter",
  "abi": [
    {
      "constant": true,
      "inputs": [],
      "name": "curr_message",
      "outputs": [
        {
          "name": "",
          "type": "string"
        }
      ],
      "payable": false,
      "stateMutability": "view",
      "type": "function",
      "signature": "0xb02e3e65"
    },
    {
      "inputs": [
        {
          "name": "message",
          "type": "string"
        }
      ],
      "payable": false,
      "stateMutability": "nonpayable",
      "type": "constructor",
      "signature": "constructor"
    },
    {
      "anonymous": false,
      "inputs": [
        {
          "indexed": false,
          "name": "time",
          "type": "uint256"
        },
        {
          "indexed": false,
          "name": "message",
          "type": "string"
        }
      ],
      "name": "Updated",
      "type": "event",
      "signature": "0x869eaec8fce459b49878f56773b8620ee220e51e2b9ca34d203a6cb3c73e125f"
    },
    {
      "constant": false,
      "inputs": [
        {
          "name": "message",
          "type": "string"
        }
      ],
      "name": "updateMessage",
      "outputs": [],
      "payable": false,
      "stateMutability": "nonpayable",
      "type": "function",
      "signature": "0x1923be24"
    }
  ],
  "bytecode": "0x608060405234801561001057600080fd5b506040516105ec3803806105ec8339810180604052602081101561003357600080fd5b81019080805164010000000081111561004b57600080fd5b8281019050602081018481111561006157600080fd5b815185600182028301116401000000008211171561007e57600080fd5b505092919050505061009e816100a4640100000000026401000000009004565b50610207565b80600090805190602001906100ba929190610162565b507f869eaec8fce459b49878f56773b8620ee220e51e2b9ca34d203a6cb3c73e125f42826040518083815260200180602001828103825283818151815260200191508051906020019080838360005b83811015610124578082015181840152602081019050610109565b50505050905090810190601f1680156101515780820380516001836020036101000a031916815260200191505b50935050505060405180910390a150565b828054600181600116156101000203166002900490600052602060002090601f016020900481019282601f106101a357805160ff19168380011785556101d1565b828001600101855582156101d1579182015b828111156101d05782518255916020019190600101906101b5565b5b5090506101de91906101e2565b5090565b61020491905b808211156102005760008160009055506001016101e8565b5090565b90565b6103d6806102166000396000f3fe60806040526004361061004c576000357c0100000000000000000000000000000000000000000000000000000000900463ffffffff1680631923be2414610051578063b02e3e6514610119575b600080fd5b34801561005d57600080fd5b506101176004803603602081101561007457600080fd5b810190808035906020019064010000000081111561009157600080fd5b8201836020820111156100a357600080fd5b803590602001918460018302840111640100000000831117156100c557600080fd5b91908080601f016020809104026020016040519081016040528093929190818152602001838380828437600081840152601f19601f8201169050808301925050505050505091929192905050506101a9565b005b34801561012557600080fd5b5061012e610267565b6040518080602001828103825283818151815260200191508051906020019080838360005b8381101561016e578082015181840152602081019050610153565b50505050905090810190601f16801561019b5780820380516001836020036101000a031916815260200191505b509250505060405180910390f35b80600090805190602001906101bf929190610305565b507f869eaec8fce459b49878f56773b8620ee220e51e2b9ca34d203a6cb3c73e125f42826040518083815260200180602001828103825283818151815260200191508051906020019080838360005b8381101561022957808201518184015260208101905061020e565b50505050905090810190601f1680156102565780820380516001836020036101000a031916815260200191505b50935050505060405180910390a150565b60008054600181600116156101000203166002900480601f0160208091040260200160405190810160405280929190818152602001828054600181600116156101000203166002900480156102fd5780601f106102d2576101008083540402835291602001916102fd565b820191906000526020600020905b8154815290600101906020018083116102e057829003601f168201915b505050505081565b828054600181600116156101000203166002900490600052602060002090601f016020900481019282601f1061034657805160ff1916838001178555610374565b82800160010185558215610374579182015b82811115610373578251825591602001919060010190610358565b5b5090506103819190610385565b5090565b6103a791905b808211156103a357600081600090555060010161038b565b5090565b9056fea165627a7a723058203f5d03370be783713d2469fb8a4a061ba7066aec9587bfadb775eb17de69aff00029",
  "source": "pragma solidity >=0.5.0 <0.6.0;\n\ncontract Emitter {\n    event Updated(uint time, string message);\n    string public curr_message;\n    constructor(string memory message) public{\n        updateMessage(message);\n    }\n\n    function updateMessage(string memory message) public{\n        curr_message = message;\n        emit Updated(now, message);\n    }\n}",
  "sourcePath": "/Users/edu/Documents/Gitcoin/xdai-listener/contracts/Emitter.sol",
  "compiler": {
    "name": "solc",
    "version": "0.5.0+commit.1d4f565a.Emscripten.clang"
  },
  "schemaVersion": "3.0.1",
  "updatedAt": "2019-01-21T15:12:55.572Z",
  "devdoc": {
    "methods": {}
  },
  "userdoc": {
    "methods": {}
  }
}