{
  "contractName": "Emitter",
  "abi": [
    {
      "constant": true,
      "inputs": [],
      "name": "poolOwner",
      "outputs": [
        {
          "name": "",
          "type": "address"
        }
      ],
      "payable": false,
      "stateMutability": "view",
      "type": "function",
      "signature": "0xcf0b2270"
    },
    {
      "inputs": [],
      "payable": false,
      "stateMutability": "nonpayable",
      "type": "constructor",
      "signature": "constructor"
    },
    {
      "anonymous": false,
      "inputs": [
        {
          "indexed": false,
          "name": "time",
          "type": "uint256"
        },
        {
          "indexed": true,
          "name": "sender",
          "type": "address"
        },
        {
          "indexed": false,
          "name": "value",
          "type": "uint256"
        }
      ],
      "name": "FundsSent",
      "type": "event",
      "signature": "0x545fa8e09b7aa32e41eb2a2ece3cdfb1e14707a7bc79c78e749c79ea6b544aee"
    },
    {
      "anonymous": false,
      "inputs": [
        {
          "indexed": false,
          "name": "time",
          "type": "uint256"
        },
        {
          "indexed": true,
          "name": "pool",
          "type": "address"
        },
        {
          "indexed": false,
          "name": "value",
          "type": "uint256"
        }
      ],
      "name": "FundsFlushed",
      "type": "event",
      "signature": "0xd4f30f1cbddf26afd7ba7f705795cb0b22306872e26f4780137b4571a181070a"
    },
    {
      "anonymous": false,
      "inputs": [
        {
          "indexed": true,
          "name": "oldPool",
          "type": "address"
        },
        {
          "indexed": true,
          "name": "newPool",
          "type": "address"
        }
      ],
      "name": "PoolChanged",
      "type": "event",
      "signature": "0x89f24f59f1f74b74999221ad0a9ab9b4d1d2b27bddbf6f91b0c773ca0f940643"
    },
    {
      "constant": false,
      "inputs": [],
      "name": "goToETH",
      "outputs": [],
      "payable": true,
      "stateMutability": "payable",
      "type": "function",
      "signature": "0xdf097dcb"
    },
    {
      "constant": false,
      "inputs": [],
      "name": "flush",
      "outputs": [],
      "payable": false,
      "stateMutability": "nonpayable",
      "type": "function",
      "signature": "0x6b9f96ea"
    },
    {
      "constant": false,
      "inputs": [
        {
          "name": "newPool",
          "type": "address"
        }
      ],
      "name": "updateOwner",
      "outputs": [],
      "payable": false,
      "stateMutability": "nonpayable",
      "type": "function",
      "signature": "0x880cdc31"
    }
  ],
  "bytecode": "0x608060405234801561001057600080fd5b50336000806101000a81548173ffffffffffffffffffffffffffffffffffffffff021916908373ffffffffffffffffffffffffffffffffffffffff1602179055506105e8806100606000396000f3fe608060405260043610610062576000357c0100000000000000000000000000000000000000000000000000000000900463ffffffff1680636b9f96ea14610067578063880cdc311461007e578063cf0b2270146100cf578063df097dcb14610126575b600080fd5b34801561007357600080fd5b5061007c610130565b005b34801561008a57600080fd5b506100cd600480360360208110156100a157600080fd5b81019080803573ffffffffffffffffffffffffffffffffffffffff169060200190929190505050610329565b005b3480156100db57600080fd5b506100e46104d7565b604051808273ffffffffffffffffffffffffffffffffffffffff1673ffffffffffffffffffffffffffffffffffffffff16815260200191505060405180910390f35b61012e6104fc565b005b6000809054906101000a900473ffffffffffffffffffffffffffffffffffffffff1673ffffffffffffffffffffffffffffffffffffffff163373ffffffffffffffffffffffffffffffffffffffff1614151561021a576040517f08c379a00000000000000000000000000000000000000000000000000000000081526004018080602001828103825260218152602001807f4f6e6c79206f776e65722063616e2063616c6c20746869732066756e6374696f81526020017f6e0000000000000000000000000000000000000000000000000000000000000081525060400191505060405180910390fd5b6000809054906101000a900473ffffffffffffffffffffffffffffffffffffffff1673ffffffffffffffffffffffffffffffffffffffff166108fc3073ffffffffffffffffffffffffffffffffffffffff16319081150290604051600060405180830381858888f19350505050158015610298573d6000803e3d6000fd5b506000809054906101000a900473ffffffffffffffffffffffffffffffffffffffff1673ffffffffffffffffffffffffffffffffffffffff167fd4f30f1cbddf26afd7ba7f705795cb0b22306872e26f4780137b4571a181070a423073ffffffffffffffffffffffffffffffffffffffff1631604051808381526020018281526020019250505060405180910390a2565b6000809054906101000a900473ffffffffffffffffffffffffffffffffffffffff1673ffffffffffffffffffffffffffffffffffffffff163373ffffffffffffffffffffffffffffffffffffffff16141515610413576040517f08c379a00000000000000000000000000000000000000000000000000000000081526004018080602001828103825260218152602001807f4f6e6c79206f776e65722063616e2063616c6c20746869732066756e6374696f81526020017f6e0000000000000000000000000000000000000000000000000000000000000081525060400191505060405180910390fd5b60008060009054906101000a900473ffffffffffffffffffffffffffffffffffffffff169050816000806101000a81548173ffffffffffffffffffffffffffffffffffffffff021916908373ffffffffffffffffffffffffffffffffffffffff1602179055508173ffffffffffffffffffffffffffffffffffffffff168173ffffffffffffffffffffffffffffffffffffffff167f89f24f59f1f74b74999221ad0a9ab9b4d1d2b27bddbf6f91b0c773ca0f94064360405160405180910390a35050565b6000809054906101000a900473ffffffffffffffffffffffffffffffffffffffff1681565b6000809054906101000a900473ffffffffffffffffffffffffffffffffffffffff1673ffffffffffffffffffffffffffffffffffffffff166108fc349081150290604051600060405180830381858888f19350505050158015610563573d6000803e3d6000fd5b503373ffffffffffffffffffffffffffffffffffffffff167f545fa8e09b7aa32e41eb2a2ece3cdfb1e14707a7bc79c78e749c79ea6b544aee4234604051808381526020018281526020019250505060405180910390a256fea165627a7a72305820d81f909bb0e61803e376d44e023c0f2efaa9649749c63ef3fd43527e4c98a3030029",
  "source": "pragma solidity >=0.5.0 <0.6.0;\n\ncontract Emitter {\n    event FundsSent(uint time, address indexed sender, uint value); // shoudl I log the time???\n    event FundsFlushed(uint time, address indexed pool, uint value);\n    event PoolChanged(address indexed oldPool, address indexed newPool);\n\n    address payable public poolOwner; // this is the address where the funds will be redirected for our liquidity pool\n    constructor() public{\n        poolOwner = msg.sender; // set the address of the pool owner\n    }\n\n    modifier isOwner(){\n        require(msg.sender == poolOwner, \"Only owner can call this function\");\n        _;\n    }\n\n    function goToETH() public payable{\n        poolOwner.transfer(msg.value); // send the funds to our pool\n        emit FundsSent(now, msg.sender, msg.value); // emit the event so that the service trigers the corresponding ETH transfer\n    }\n\n    function flush() isOwner public{\n        poolOwner.transfer(address(this).balance); // send the funds to our pool\n        emit FundsFlushed(now, poolOwner, address(this).balance); // \n    }\n\n    function updateOwner(address payable newPool) isOwner public{\n        address oldPool = poolOwner;\n        poolOwner = newPool;\n        emit PoolChanged(oldPool, newPool);\n    }\n\n}",
  "sourcePath": "/Users/edu/Documents/Gitcoin/xdai-listener/contracts/Emitter.sol",
  "compiler": {
    "name": "solc",
    "version": "0.5.0+commit.1d4f565a.Emscripten.clang"
  },
  "schemaVersion": "3.0.1",
  "updatedAt": "2019-01-24T15:32:58.398Z",
  "devdoc": {
    "methods": {}
  },
  "userdoc": {
    "methods": {}
  }
}